{"abi":[{"type":"constructor","inputs":[{"name":"_usdc","type":"address","internalType":"address"}],"stateMutability":"nonpayable"},{"type":"function","name":"claimAfterTimeout","inputs":[{"name":"escrowId","type":"uint256","internalType":"uint256"}],"outputs":[],"stateMutability":"nonpayable"},{"type":"function","name":"completedAsBuyer","inputs":[{"name":"","type":"address","internalType":"address"}],"outputs":[{"name":"","type":"uint256","internalType":"uint256"}],"stateMutability":"view"},{"type":"function","name":"completedAsseller","inputs":[{"name":"","type":"address","internalType":"address"}],"outputs":[{"name":"","type":"uint256","internalType":"uint256"}],"stateMutability":"view"},{"type":"function","name":"createEscrow","inputs":[{"name":"seller","type":"address","internalType":"address"},{"name":"amount","type":"uint256","internalType":"uint256"},{"name":"timeoutSeconds","type":"uint256","internalType":"uint256"},{"name":"serviceId","type":"bytes32","internalType":"bytes32"}],"outputs":[{"name":"escrowId","type":"uint256","internalType":"uint256"}],"stateMutability":"nonpayable"},{"type":"function","name":"dispute","inputs":[{"name":"escrowId","type":"uint256","internalType":"uint256"}],"outputs":[],"stateMutability":"nonpayable"},{"type":"function","name":"escrowCount","inputs":[],"outputs":[{"name":"","type":"uint256","internalType":"uint256"}],"stateMutability":"view"},{"type":"function","name":"escrows","inputs":[{"name":"","type":"uint256","internalType":"uint256"}],"outputs":[{"name":"buyer","type":"address","internalType":"address"},{"name":"seller","type":"address","internalType":"address"},{"name":"amount","type":"uint256","internalType":"uint256"},{"name":"createdAt","type":"uint256","internalType":"uint256"},{"name":"timeoutSeconds","type":"uint256","internalType":"uint256"},{"name":"state","type":"uint8","internalType":"enum AgentEscrow.EscrowState"},{"name":"serviceId","type":"bytes32","internalType":"bytes32"}],"stateMutability":"view"},{"type":"function","name":"getAgentStats","inputs":[{"name":"agent","type":"address","internalType":"address"}],"outputs":[{"name":"completedSales","type":"uint256","internalType":"uint256"},{"name":"completedPurchases","type":"uint256","internalType":"uint256"}],"stateMutability":"view"},{"type":"function","name":"getEscrow","inputs":[{"name":"escrowId","type":"uint256","internalType":"uint256"}],"outputs":[{"name":"buyer","type":"address","internalType":"address"},{"name":"seller","type":"address","internalType":"address"},{"name":"amount","type":"uint256","internalType":"uint256"},{"name":"createdAt","type":"uint256","internalType":"uint256"},{"name":"timeoutSeconds","type":"uint256","internalType":"uint256"},{"name":"state","type":"uint8","internalType":"enum AgentEscrow.EscrowState"},{"name":"serviceId","type":"bytes32","internalType":"bytes32"}],"stateMutability":"view"},{"type":"function","name":"isTimedOut","inputs":[{"name":"escrowId","type":"uint256","internalType":"uint256"}],"outputs":[{"name":"","type":"bool","internalType":"bool"}],"stateMutability":"view"},{"type":"function","name":"release","inputs":[{"name":"escrowId","type":"uint256","internalType":"uint256"}],"outputs":[],"stateMutability":"nonpayable"},{"type":"function","name":"usdc","inputs":[],"outputs":[{"name":"","type":"address","internalType":"contract IERC20"}],"stateMutability":"view"},{"type":"event","name":"EscrowCreated","inputs":[{"name":"escrowId","type":"uint256","indexed":true,"internalType":"uint256"},{"name":"buyer","type":"address","indexed":true,"internalType":"address"},{"name":"seller","type":"address","indexed":true,"internalType":"address"},{"name":"amount","type":"uint256","indexed":false,"internalType":"uint256"},{"name":"serviceId","type":"bytes32","indexed":false,"internalType":"bytes32"}],"anonymous":false},{"type":"event","name":"EscrowDisputed","inputs":[{"name":"escrowId","type":"uint256","indexed":true,"internalType":"uint256"},{"name":"disputer","type":"address","indexed":true,"internalType":"address"}],"anonymous":false},{"type":"event","name":"EscrowRefunded","inputs":[{"name":"escrowId","type":"uint256","indexed":true,"internalType":"uint256"},{"name":"buyer","type":"address","indexed":true,"internalType":"address"},{"name":"amount","type":"uint256","indexed":false,"internalType":"uint256"}],"anonymous":false},{"type":"event","name":"EscrowReleased","inputs":[{"name":"escrowId","type":"uint256","indexed":true,"internalType":"uint256"},{"name":"seller","type":"address","indexed":true,"internalType":"address"},{"name":"amount","type":"uint256","indexed":false,"internalType":"uint256"}],"anonymous":false},{"type":"error","name":"ReentrancyGuardReentrantCall","inputs":[]},{"type":"error","name":"SafeERC20FailedOperation","inputs":[{"name":"token","type":"address","internalType":"address"}]}],"bytecode":{"object":"0x60a060405234801562000010575f80fd5b5060405162001e8938038062001e89833981810160405281019062000036919062000130565b6001620000586200004c6200009960201b60201c565b620000c260201b60201c565b5f01819055508073ffffffffffffffffffffffffffffffffffffffff1660808173ffffffffffffffffffffffffffffffffffffffff16815250505062000160565b5f7f9b779b17422d0df92223018b32b4d1fa46e071723d6817e2486d003becc55f005f1b905090565b5f819050919050565b5f80fd5b5f73ffffffffffffffffffffffffffffffffffffffff82169050919050565b5f620000fa82620000cf565b9050919050565b6200010c81620000ee565b811462000117575f80fd5b50565b5f815190506200012a8162000101565b92915050565b5f60208284031215620001485762000147620000cb565b5b5f62000157848285016200011a565b91505092915050565b608051611cf4620001955f395f818161058e01528181610656015281816108c501528181610c0f01526110da0152611cf45ff3fe608060405234801561000f575f80fd5b50600436106100b2575f3560e01c8063819ab14c1161006f578063819ab14c1461019657806386d6282c146101c65780639ac451de146101e2578063b5695b3814610212578063cc8ac98814610243578063f41b994f14610273576100b2565b8063012f52ee146100b657806337bdc99b146100ec5780633e413bee14610108578063675ac67a146101265780636f556d26146101445780637d19e59614610160575b5f80fd5b6100d060048036038101906100cb9190611414565b6102a3565b6040516100e39796959493929190611518565b60405180910390f35b61010660048036038101906101019190611414565b61032a565b005b610110610654565b60405161011d91906115e0565b60405180910390f35b61012e610678565b60405161013b91906115f9565b60405180910390f35b61015e60048036038101906101599190611414565b61067e565b005b61017a60048036038101906101759190611414565b61098b565b60405161018d9796959493929190611518565b60405180910390f35b6101b060048036038101906101ab919061163c565b610a2b565b6040516101bd91906115f9565b60405180910390f35b6101e060048036038101906101db9190611414565b610a40565b005b6101fc60048036038101906101f7919061163c565b610cd4565b60405161020991906115f9565b60405180910390f35b61022c6004803603810190610227919061163c565b610ce9565b60405161023a929190611667565b60405180910390f35b61025d60048036038101906102589190611414565b610d70565b60405161026a91906116a8565b60405180910390f35b61028d600480360381019061028891906116eb565b610da3565b60405161029a91906115f9565b60405180910390f35b5f602052805f5260405f205f91509050805f015f9054906101000a900473ffffffffffffffffffffffffffffffffffffffff1690806001015f9054906101000a900473ffffffffffffffffffffffffffffffffffffffff1690806002015490806003015490806004015490806005015f9054906101000a900460ff16908060060154905087565b610332611197565b5f805f8381526020019081526020015f2090505f60038111156103585761035761148d565b5b816005015f9054906101000a900460ff16600381111561037b5761037a61148d565b5b146103bb576040517f08c379a00000000000000000000000000000000000000000000000000000000081526004016103b2906117a9565b60405180910390fd5b805f015f9054906101000a900473ffffffffffffffffffffffffffffffffffffffff1673ffffffffffffffffffffffffffffffffffffffff163373ffffffffffffffffffffffffffffffffffffffff161461044b576040517f08c379a000000000000000000000000000000000000000000000000000000000815260040161044290611811565b60405180910390fd5b6001816005015f6101000a81548160ff021916908360038111156104725761047161148d565b5b021790555060025f826001015f9054906101000a900473ffffffffffffffffffffffffffffffffffffffff1673ffffffffffffffffffffffffffffffffffffffff1673ffffffffffffffffffffffffffffffffffffffff1681526020019081526020015f205f8154809291906104e79061185c565b919050555060035f825f015f9054906101000a900473ffffffffffffffffffffffffffffffffffffffff1673ffffffffffffffffffffffffffffffffffffffff1673ffffffffffffffffffffffffffffffffffffffff1681526020019081526020015f205f81548092919061055b9061185c565b91905055506105d2816001015f9054906101000a900473ffffffffffffffffffffffffffffffffffffffff1682600201547f000000000000000000000000000000000000000000000000000000000000000073ffffffffffffffffffffffffffffffffffffffff166111b99092919063ffffffff16565b806001015f9054906101000a900473ffffffffffffffffffffffffffffffffffffffff1673ffffffffffffffffffffffffffffffffffffffff16827f6244ed823ca6be0f11bc890c3fafcf3c29cb23420c14243642e930b5e07e6d0a836002015460405161064091906115f9565b60405180910390a35061065161120c565b50565b7f000000000000000000000000000000000000000000000000000000000000000081565b60015481565b610686611197565b5f805f8381526020019081526020015f2090505f60038111156106ac576106ab61148d565b5b816005015f9054906101000a900460ff1660038111156106cf576106ce61148d565b5b1461070f576040517f08c379a0000000000000000000000000000000000000000000000000000000008152600401610706906117a9565b60405180910390fd5b806001015f9054906101000a900473ffffffffffffffffffffffffffffffffffffffff1673ffffffffffffffffffffffffffffffffffffffff163373ffffffffffffffffffffffffffffffffffffffff16146107a0576040517f08c379a0000000000000000000000000000000000000000000000000000000008152600401610797906118ed565b60405180910390fd5b806004015481600301546107b4919061190b565b4210156107f6576040517f08c379a00000000000000000000000000000000000000000000000000000000081526004016107ed90611988565b60405180910390fd5b6001816005015f6101000a81548160ff0219169083600381111561081d5761081c61148d565b5b021790555060025f826001015f9054906101000a900473ffffffffffffffffffffffffffffffffffffffff1673ffffffffffffffffffffffffffffffffffffffff1673ffffffffffffffffffffffffffffffffffffffff1681526020019081526020015f205f8154809291906108929061185c565b9190505550610909816001015f9054906101000a900473ffffffffffffffffffffffffffffffffffffffff1682600201547f000000000000000000000000000000000000000000000000000000000000000073ffffffffffffffffffffffffffffffffffffffff166111b99092919063ffffffff16565b806001015f9054906101000a900473ffffffffffffffffffffffffffffffffffffffff1673ffffffffffffffffffffffffffffffffffffffff16827f6244ed823ca6be0f11bc890c3fafcf3c29cb23420c14243642e930b5e07e6d0a836002015460405161097791906115f9565b60405180910390a35061098861120c565b50565b5f805f805f805f805f808a81526020019081526020015f209050805f015f9054906101000a900473ffffffffffffffffffffffffffffffffffffffff16816001015f9054906101000a900473ffffffffffffffffffffffffffffffffffffffff16826002015483600301548460040154856005015f9054906101000a900460ff168660060154975097509750975097509750975050919395979092949650565b6003602052805f5260405f205f915090505481565b610a48611197565b5f805f8381526020019081526020015f2090505f6003811115610a6e57610a6d61148d565b5b816005015f9054906101000a900460ff166003811115610a9157610a9061148d565b5b14610ad1576040517f08c379a0000000000000000000000000000000000000000000000000000000008152600401610ac8906117a9565b60405180910390fd5b805f015f9054906101000a900473ffffffffffffffffffffffffffffffffffffffff1673ffffffffffffffffffffffffffffffffffffffff163373ffffffffffffffffffffffffffffffffffffffff1614610b61576040517f08c379a0000000000000000000000000000000000000000000000000000000008152600401610b58906119f0565b60405180910390fd5b80600401548160030154610b75919061190b565b4210610bb6576040517f08c379a0000000000000000000000000000000000000000000000000000000008152600401610bad90611a58565b60405180910390fd5b6002816005015f6101000a81548160ff02191690836003811115610bdd57610bdc61148d565b5b0217905550610c53815f015f9054906101000a900473ffffffffffffffffffffffffffffffffffffffff1682600201547f000000000000000000000000000000000000000000000000000000000000000073ffffffffffffffffffffffffffffffffffffffff166111b99092919063ffffffff16565b805f015f9054906101000a900473ffffffffffffffffffffffffffffffffffffffff1673ffffffffffffffffffffffffffffffffffffffff16827feac97bc1917fcedc984e3d0671d4e83b359890323d5d1c2de32b28d17c356ced8360020154604051610cc091906115f9565b60405180910390a350610cd161120c565b50565b6002602052805f5260405f205f915090505481565b5f8060025f8473ffffffffffffffffffffffffffffffffffffffff1673ffffffffffffffffffffffffffffffffffffffff1681526020019081526020015f205460035f8573ffffffffffffffffffffffffffffffffffffffff1673ffffffffffffffffffffffffffffffffffffffff1681526020019081526020015f205491509150915091565b5f805f808481526020019081526020015f20905080600401548160030154610d98919061190b565b421015915050919050565b5f610dac611197565b5f73ffffffffffffffffffffffffffffffffffffffff168573ffffffffffffffffffffffffffffffffffffffff1603610e1a576040517f08c379a0000000000000000000000000000000000000000000000000000000008152600401610e1190611ac0565b60405180910390fd5b3373ffffffffffffffffffffffffffffffffffffffff168573ffffffffffffffffffffffffffffffffffffffff1603610e88576040517f08c379a0000000000000000000000000000000000000000000000000000000008152600401610e7f90611b28565b60405180910390fd5b5f8411610eca576040517f08c379a0000000000000000000000000000000000000000000000000000000008152600401610ec190611b90565b60405180910390fd5b610e10831015610f0f576040517f08c379a0000000000000000000000000000000000000000000000000000000008152600401610f0690611bf8565b60405180910390fd5b62278d00831115610f55576040517f08c379a0000000000000000000000000000000000000000000000000000000008152600401610f4c90611c60565b60405180910390fd5b60015f815480929190610f679061185c565b9190505590506040518060e001604052803373ffffffffffffffffffffffffffffffffffffffff1681526020018673ffffffffffffffffffffffffffffffffffffffff1681526020018581526020014281526020018481526020015f6003811115610fd557610fd461148d565b5b8152602001838152505f808381526020019081526020015f205f820151815f015f6101000a81548173ffffffffffffffffffffffffffffffffffffffff021916908373ffffffffffffffffffffffffffffffffffffffff1602179055506020820151816001015f6101000a81548173ffffffffffffffffffffffffffffffffffffffff021916908373ffffffffffffffffffffffffffffffffffffffff16021790555060408201518160020155606082015181600301556080820151816004015560a0820151816005015f6101000a81548160ff021916908360038111156110c0576110bf61148d565b5b021790555060c0820151816006015590505061111f3330867f000000000000000000000000000000000000000000000000000000000000000073ffffffffffffffffffffffffffffffffffffffff16611226909392919063ffffffff16565b8473ffffffffffffffffffffffffffffffffffffffff163373ffffffffffffffffffffffffffffffffffffffff16827fd32a8e6ee4eaa7ae887d4659a3212bb80cc3691c898c8eae123745080a3dfcd1878660405161117f929190611c7e565b60405180910390a461118f61120c565b949350505050565b61119f61127b565b60026111b16111ac6112bc565b6112e5565b5f0181905550565b6111c683838360016112ee565b61120757826040517f5274afe70000000000000000000000000000000000000000000000000000000081526004016111fe9190611ca5565b60405180910390fd5b505050565b600161121e6112196112bc565b6112e5565b5f0181905550565b611234848484846001611350565b61127557836040517f5274afe700000000000000000000000000000000000000000000000000000000815260040161126c9190611ca5565b60405180910390fd5b50505050565b6112836113c1565b156112ba576040517f3ee5aeb500000000000000000000000000000000000000000000000000000000815260040160405180910390fd5b565b5f7f9b779b17422d0df92223018b32b4d1fa46e071723d6817e2486d003becc55f005f1b905090565b5f819050919050565b5f8063a9059cbb60e01b9050604051815f525f1960601c86166004528460245260205f60445f808b5af1925060015f51148316611342578383151615611336573d5f823e3d81fd5b5f873b113d1516831692505b806040525050949350505050565b5f806323b872dd60e01b9050604051815f525f1960601c87166004525f1960601c86166024528460445260205f60645f808c5af1925060015f511483166113ae5783831516156113a2573d5f823e3d81fd5b5f883b113d1516831692505b806040525f606052505095945050505050565b5f60026113d46113cf6112bc565b6112e5565b5f015414905090565b5f80fd5b5f819050919050565b6113f3816113e1565b81146113fd575f80fd5b50565b5f8135905061140e816113ea565b92915050565b5f60208284031215611429576114286113dd565b5b5f61143684828501611400565b91505092915050565b5f73ffffffffffffffffffffffffffffffffffffffff82169050919050565b5f6114688261143f565b9050919050565b6114788161145e565b82525050565b611487816113e1565b82525050565b7f4e487b71000000000000000000000000000000000000000000000000000000005f52602160045260245ffd5b600481106114cb576114ca61148d565b5b50565b5f8190506114db826114ba565b919050565b5f6114ea826114ce565b9050919050565b6114fa816114e0565b82525050565b5f819050919050565b61151281611500565b82525050565b5f60e08201905061152b5f83018a61146f565b611538602083018961146f565b611545604083018861147e565b611552606083018761147e565b61155f608083018661147e565b61156c60a08301856114f1565b61157960c0830184611509565b98975050505050505050565b5f819050919050565b5f6115a86115a361159e8461143f565b611585565b61143f565b9050919050565b5f6115b98261158e565b9050919050565b5f6115ca826115af565b9050919050565b6115da816115c0565b82525050565b5f6020820190506115f35f8301846115d1565b92915050565b5f60208201905061160c5f83018461147e565b92915050565b61161b8161145e565b8114611625575f80fd5b50565b5f8135905061163681611612565b92915050565b5f60208284031215611651576116506113dd565b5b5f61165e84828501611628565b91505092915050565b5f60408201905061167a5f83018561147e565b611687602083018461147e565b9392505050565b5f8115159050919050565b6116a28161168e565b82525050565b5f6020820190506116bb5f830184611699565b92915050565b6116ca81611500565b81146116d4575f80fd5b50565b5f813590506116e5816116c1565b92915050565b5f805f8060808587031215611703576117026113dd565b5b5f61171087828801611628565b945050602061172187828801611400565b935050604061173287828801611400565b9250506060611743878288016116d7565b91505092959194509250565b5f82825260208201905092915050565b7f457363726f77206e6f74206163746976650000000000000000000000000000005f82015250565b5f61179360118361174f565b915061179e8261175f565b602082019050919050565b5f6020820190508181035f8301526117c081611787565b9050919050565b7f4f6e6c792062757965722063616e2072656c65617365000000000000000000005f82015250565b5f6117fb60168361174f565b9150611806826117c7565b602082019050919050565b5f6020820190508181035f830152611828816117ef565b9050919050565b7f4e487b71000000000000000000000000000000000000000000000000000000005f52601160045260245ffd5b5f611866826113e1565b91507fffffffffffffffffffffffffffffffffffffffffffffffffffffffffffffffff82036118985761189761182f565b5b600182019050919050565b7f4f6e6c792073656c6c65722063616e20636c61696d00000000000000000000005f82015250565b5f6118d760158361174f565b91506118e2826118a3565b602082019050919050565b5f6020820190508181035f830152611904816118cb565b9050919050565b5f611915826113e1565b9150611920836113e1565b92508282019050808211156119385761193761182f565b5b92915050565b7f54696d656f7574206e6f742072656163686564000000000000000000000000005f82015250565b5f61197260138361174f565b915061197d8261193e565b602082019050919050565b5f6020820190508181035f83015261199f81611966565b9050919050565b7f4f6e6c792062757965722063616e2064697370757465000000000000000000005f82015250565b5f6119da60168361174f565b91506119e5826119a6565b602082019050919050565b5f6020820190508181035f830152611a07816119ce565b9050919050565b7f54696d656f7574207061737365640000000000000000000000000000000000005f82015250565b5f611a42600e8361174f565b9150611a4d82611a0e565b602082019050919050565b5f6020820190508181035f830152611a6f81611a36565b9050919050565b7f496e76616c69642073656c6c65720000000000000000000000000000000000005f82015250565b5f611aaa600e8361174f565b9150611ab582611a76565b602082019050919050565b5f6020820190508181035f830152611ad781611a9e565b9050919050565b7f43616e6e6f7420657363726f7720746f20796f757273656c66000000000000005f82015250565b5f611b1260198361174f565b9150611b1d82611ade565b602082019050919050565b5f6020820190508181035f830152611b3f81611b06565b9050919050565b7f416d6f756e74206d75737420626520706f7369746976650000000000000000005f82015250565b5f611b7a60178361174f565b9150611b8582611b46565b602082019050919050565b5f6020820190508181035f830152611ba781611b6e565b9050919050565b7f54696d656f757420746f6f2073686f72740000000000000000000000000000005f82015250565b5f611be260118361174f565b9150611bed82611bae565b602082019050919050565b5f6020820190508181035f830152611c0f81611bd6565b9050919050565b7f54696d656f757420746f6f206c6f6e67000000000000000000000000000000005f82015250565b5f611c4a60108361174f565b9150611c5582611c16565b602082019050919050565b5f6020820190508181035f830152611c7781611c3e565b9050919050565b5f604082019050611c915f83018561147e565b611c9e6020830184611509565b9392505050565b5f602082019050611cb85f83018461146f565b9291505056fea26469706673582212202d94ee623e9849db067c67d94b68582530be0ea9fae4df82486e2c7fd459549964736f6c63430008170033","linkReferences":{}},"methodIdentifiers":{"claimAfterTimeout(uint256)":"6f556d26","completedAsBuyer(address)":"819ab14c","completedAsseller(address)":"9ac451de","createEscrow(address,uint256,uint256,bytes32)":"f41b994f","dispute(uint256)":"86d6282c","escrowCount()":"675ac67a","escrows(uint256)":"012f52ee","getAgentStats(address)":"b5695b38","getEscrow(uint256)":"7d19e596","isTimedOut(uint256)":"cc8ac988","release(uint256)":"37bdc99b","usdc()":"3e413bee"},"id":29}